:100000005BC0000075C000009CC0000071C0000013
:100010006FC000006DC000006BC0000069C0000030
:1000200067C0000065C0000063C0000061C0000040
:100030005FC000005DC000005BC0000059C0000050
:1000400057C0000055C0000053C0000051C0000060
:100050004FC000004DC000004BC0000049C0000070
:1000600047C0000031C4000043C0000041C0000090
:100070003FC000003DC000003BC0000039C0000090
:1000800037C0000035C0000033C0000031C00000A0
:100090002FC000002DC000002BC0000029C00000B0
:1000A00027C0000025C0000023C000006364696E03
:1000B0006F70737578585B0011241FBECFEFDAE0C4
:1000C000DEBFCDBF12E0A0E0B1E0E0EDFCE102C098
:1000D00005900D92AA30B107D9F726E0AAE0B2E068
:1000E00001C01D92A739B207E1F782D50C94660EC4
:1000F00087CF3F9A519883ED90E30197F1F700C0C5
:100100000000E9E6F0E0808184608083808188607F
:100110008083E99A0895479A85E08A95F1F7479890
:1001200085E08A95F1F780911402909115029093E1
:100130000B0280930A02089580910A0290910B02AB
:1001400008951F920F920FB60F9211242F933F9391
:100150004F935F936F937F938F939F93AF93BF93CF
:10016000EF93FF9380919100816080939100499972
:10017000FECF10929100809194009091950060EADA
:1001800073E040D690E080E030D726E636E646EAD7
:100190005FE396D6F9D6709315026093140210921D
:1001A00095001092940020910C0230910D02409124
:1001B0000E0250910F026091100270911102809115
:1001C000120290911302A1E06ED620930C0230939C
:1001D0000D0240930E0250930F0260931002709331
:1001E00011028093120290931302FF91EF91BF913D
:1001F000AF919F918F917F916F915F914F913F91BF
:100200002F910F900FBE0F901F90189580E4809350
:100210007C0087E880937A000895909118022091DD
:100220007C009095922390937C0090917B00883085
:1002300008F454C0906290937B008A30B1F198F436
:10024000883009F444C08930C9F180917A00806413
:1002500080937A0080917A0086FDFCCF80917800AF
:100260009091790008958C3071F0B0F08D3069F77D
:1002700080917C00856080937C008091180285606D
:1002800080931802E2CF80917C00846080937C0090
:10029000809118028460F4CF80917C008360809309
:1002A0007C00809118028360EBCF80917C0082609B
:1002B00080937C00809118028260E2CF80917C0064
:1002C000816080937C00809118028160D9CF8091F9
:1002D0007C0080937C0080911802D2CF9F7D909308
:1002E0007B0090917C00892B80937C00AECF89307D
:1002F0009105C8F4FC01E258FE4F98C5AC01A0017D
:1003000087019401B8019301C401D001DC0187E0A9
:10031000E2E1F1E0A4E7B6E001900D928A95E1F701
:1003200084E796E055C0089587E0E9E1F1E0AAE4AA
:10033000B6E001900D928A95E1F78AE496E0F2CF5B
:1003400087E0E0E2F1E0A8E5B6E001900D928A9541
:10035000E1F788E596E0E6CF87E0E7E2F1E0A6E6A0
:10036000B6E001900D928A95E1F786E696E0DACF45
:1003700087E0EEE2F1E0ADE6B6E001900D928A95FD
:10038000E1F78DE696E0CECF87E0E5E3F1E0A0E986
:10039000B6E001900D928A95E1F780E996E0C2CF30
:1003A00087E0ECE3F1E0A2E8B6E001900D928A95D7
:1003B000E1F782E896E0B6CF87E0E3E4F1E0A1E57B
:1003C000B6E001900D928A95E1F781E596E0AACF1B
:1003D000DC01ED91FC911197908114968C9121E0B4
:1003E00030E001C0220F8A95EAF7892F822B8083A3
:1003F00008958530910529F18730910591F0892B79
:1004000079F487E0EAE4F1E0AFE5B6E001900D921F
:100410008A95E1F78FE596E0DBDF81E08093780352
:10042000089587E0E1E5F1E0A9E8B6E001900D92DA
:100430008A95E1F789E896E0CBDF81E08093790344
:10044000089587E0E8E5F1E0ABE7B6E001900D92B2
:100450008A95E1F78BE796E0BBDF81E08093770335
:100460000895DC011296ED91FC91139714962C914E
:1004700081E090E001C0880F2A95EAF79081672B10
:1004800019F4892B8083089580958923FBCFDC01A3
:100490001296ED91FC91139714962C9181E090E0C7
:1004A00001C0880F2A95EAF79081672B21F4809587
:1004B000892380830895892BFCCFDC011296ED916E
:1004C000FC911397908114968C9121E030E001C04B
:1004D000220F8A95EAF7892F822780830895FC01ED
:1004E000A281B381848121E030E001C0220F8A958E
:1004F000EAF78C91672B09F5282B2C932FEF84E3D7
:100500009CE0215080409040E1F700C00000A281B3
:10051000B3818C91948121E030E001C0220F9A9543
:10052000EAF782278C932FEF84E39CE021508040F0
:100530009040E1F700C00000089520952823DDCF0A
:10054000CF93DF93C2E0D0E080917903882329F034
:1005500070E060E089E896E0C2DF8091780388234C
:1005600029F061E070E08FE596E0B9DF80917703D4
:10057000882329F061E070E08BE796E0B0DF2197F7
:1005800019F4DF91CF910895C1E0D0E0DDCF479A13
:100590002FEF85EA9EE0215080409040E1F700C0B7
:1005A000000047982FEF85EA9EE021508040904060
:1005B000E1F700C000000895B0E0A0E0E1EEF2E055
:1005C0003DC4C0918003D0918103C81BD90B80909A
:1005D000060190900701A0900801B09009010091D8
:1005E0007C0310917D0340900201509003016090C4
:1005F000040170900501E0907E03F0907F03C090AD
:100600000001D0900101D0937F03C0937E038091BD
:100610007C0390917D038C0F9D1F90937D038093AD
:100620007C03BE010D2E000C880B990BE0D4A501B4
:10063000940169D54B015C01B801012E000C880BB7
:10064000990BD5D4A30192015ED59B01AC01C501E4
:10065000B40136D44B015C01CE19DF09CC9DB00149
:10066000CD9D700DDC9D700D1124072E000C880BA4
:10067000990BBDD49B01AC01C501B40121D484D434
:100680006B017C01072E000C880B990BB0D44B0139
:100690005C0120E030E040E05FE3D7FE0DC084EB7A
:1006A000C80ED11CB6010D2C000C880B990B9FD4E1
:1006B00020E030E040E05FE326D5A501940100D4BE
:1006C00063D4272F862F922F8F3A910514F08EEA4C
:1006D00090E097FF02C090E080E022D2CDB7DEB775
:1006E000E0E1C8C3CF93DF93EC01809184038111D3
:1006F0003DC0C43521E0D207CCF58AE496E0DDDECA
:1007000081E08093840385E090E09093810380935F
:10071000800380918303811137C0CE0185559140BC
:100720008335914088F580E996E0C7DE81E08093CB
:1007300083038CE090E09093810380938003809109
:100740008203811131C0C93A82E0D8076CF184E795
:1007500096E0B3DE81E08093820384E190E09093A1
:10076000810380938003DF91CF910895809184036A
:10077000882379F2C43581E0D8075CF28AE496E0F8
:100780009CDE10928403C5CF809183038823B9F245
:10079000CE01845591408535914088F280E996E0FC
:1007A0008CDE10928303CBCF809182038823D9F211
:1007B000C93AD240C4F684E796E07FDE1092820305
:1007C000D2CF843521E092074CF4109206011092AA
:1007D0000701109208011092090108959C01255506
:1007E00031402335314068F48AE999E9A1E0B1E468
:1007F0008093060190930701A0930801B09309012B
:100800000895893A9240E4F38AE999E9A1E8B1E4CC
:10081000EFCF843521E092074CF410920201109240
:100820000301109204011092050108959C012555C1
:1008300031402335314068F483EE92ECA1E8BAE30D
:100840008093020190930301A0930401B0930501EA
:100850000895893A9240E4F383EE92ECA1E0BBE381
:10086000EFCF843521E092072CF410920101109211
:10087000000108959C01255531402335314038F45D
:1008800088E893E190930101809300010895893AEB
:100890009240E4F380EE9EE2F5CF87E690E09093FD
:1008A000CD008093CC00EAECF0E08081866080830C
:1008B000E9ECF0E0808188608083808180618083C2
:1008C00080818068808308951F920F920FB60F92E7
:1008D00011248F939F93EF93FF938091CE008D30DF
:1008E00021F090914706923378F081E090E0909368
:1008F000460680934506FF91EF919F918F910F904F
:100900000FBE0F901F901895883081F48091470694
:10091000882329F080914706815080934706E09113
:100920004706F0E0EB51FB4F1082E5CF803279F0C3
:100930008B3269F093ED980F923048F090ED980F5C
:100940009A3028F0982F9F7D91549A31A0F6E0912B
:100950004706F0E0EB51FB4F8083809147068F5FA5
:1009600080934706C8CF9091C80095FFFCCF809335
:10097000CE000895CF93DF93EC018991811105C0DA
:100980008DE0F1DFDF91CF910895EDDFF6CFCF92CB
:10099000DF92EF92FF92CF93DF9300D01F92CDB7FB
:1009A000DEB7CE0101969F938F9302969F938F930C
:1009B00082E891E09F938F9385EE94E09F938F93CD
:1009C00025D40FB6F894DEBF0FBECDBF8B81813525
:1009D00059F034F48035B1F18FE791E0CBDF13C0EB
:1009E000803781F18137C1F78091430690914406A9
:1009F000892B01F588E891E0BDDF81E090E09093DC
:100A000044068093430610924706E5EEF4E082E345
:100A1000DF011D928A95E9F710924606109245066D
:100A20000F900F900F90DF91CF91FF90EF90DF909C
:100A3000CF90089586EB91E09DDF109244061092CE
:100A40004306E1CF20910001309101016091020144
:100A5000709103018091040190910501C0900601FD
:100A6000D0900701E0900801F09009013F932F9387
:100A700020E030E44CE156E446D386D27F936F9376
:100A800020E030E040E251E4C701B6013CD37CD223
:100A90007F936F9385EE91E09F938F9387E195E02D
:100AA0009F938F9393D387E195E064DF0FB6F8941B
:100AB000DEBF0FBECDBFA7CFA0E8B0E01C92E1E83B
:100AC000F0E010828081836080838C9182608C93BF
:100AD00080818861808388E893E190938700809388
:100AE00086000895259AE0E8F0E0808180688083A0
:100AF000809110019091110190938900809388005A
:100B00000895269AE0E8F0E08081806280838091F9
:100B100010019091110190938B0080938A000895A9
:100B2000CF92DF92EF92FF92CF93DF9323B12223F4
:100B3000F9F0C0911001D0911101BC01990F880BFF
:100B4000990B55D22FE832EC45E350E4DCD26B012F
:100B50007C01BE01DD0F880B990B49D29B01AC01D2
:100B6000C701B601ADD110D270938900609388009F
:100B7000DF91CF91FF90EF90DF90CF900895CF92CB
:100B8000DF92EF92FF92CF93DF9323B12223F9F00C
:100B9000C0911001D0911101BC01990F880B990BE4
:100BA00026D22FE832EC45E350E4ADD26B017C0154
:100BB000BE01DD0F880B990B1AD29B01AC01C70156
:100BC000B6017ED1E1D170938B0060938A00DF91F2
:100BD000CF91FF90EF90DF90CF9008959093890090
:100BE00080938800089590938B0080938A000895E5
:100BF000AEE0B0E0EDEFF5E02BC11092D8003F9AE7
:100C0000C6DCC5DCC4DCC3DCC2DC279A2F9A54DF07
:100C100069DF6FDAFBDA83E090E069DB90E080E087
:100C200066DB86E090E063DB82E090E060DB8BE0F7
:100C3000F4DA8E8718861F828DE0EFDA8D8788E0E0
:100C4000ECDA8C8789E0E9DA8B8727DE2FEF80E703
:100C500092E0215080409040E1F700C0000078947D
:100C60008FE591E087DE8DE6E82E81E0F82E07EB38
:100C700013E020910C0230910D0240910E02509130
:100C80000F026091100270911102809112029091F6
:100C90001302283C310541055105610571058105A7
:100CA0009105C1F0B8F086E696E007DC10920C02E0
:100CB00010920D0210920E0210920F02109210026A
:100CC00010921102109212021092130225E32A953B
:100CD000F1F700008091450690914606892B19F0A6
:100CE00082E441DE54DE17DA80910A0290910B0211
:100CF00098878F838F8198855FDC8BE08EDA9A8767
:100D000089878DE08ADA9E838D8388E086DA9C83EA
:100D10008B8389E082DA9A8389838E8529853A8557
:100D200090E088539F4F8217930740F08E85298566
:100D30003A85885C990B2817390730F489859A859C
:100D40008E8789859A85CEDC2D858D819E818853FD
:100D50009F4F2817190609F040F42D858D819E813B
:100D6000885C91092817190630F48D819E818D8742
:100D70008D819E8126DD2C858B819C8188539F4FA0
:100D80002817190609F040F42C858B819C81885C1A
:100D900091092817190630F48B819C818C878B81EF
:100DA0009C8137DD2B8589819A8188539F4F281735
:100DB000190609F040F42B8589819A81885C910994
:100DC0002817190630F489819A818B8789819A8145
:100DD00048DD85E38A95F1F7000080910A02909141
:100DE0000B029F938F93FF92EF921F930F93EED17D
:100DF00087EB93E0BFDD0F900F900F900F900F9057
:100E00000F9037CFAA1BBB1B51E107C0AA1FBB1F06
:100E1000A617B70710F0A61BB70B881F991F5A9586
:100E2000A9F780959095BC01CD010895EE0FFF1FA5
:100E30000590F491E02D09942F923F924F925F928A
:100E40006F927F928F929F92AF92BF92CF92DF92DA
:100E5000EF92FF920F931F93CF93DF93CDB7DEB73F
:100E6000CA1BDB0B0FB6F894DEBF0FBECDBF0994D3
:100E70002A88398848885F846E847D848C849B842A
:100E8000AA84B984C884DF80EE80FD800C811B8138
:100E9000AA81B981CE0FD11D0FB6F894DEBF0FBE67
:100EA000CDBFED0108950024A7FD00942A0F301D49
:100EB000401D501D601D701D801D901D08955058CF
:100EC000BB27AA270ED0E5C0D6D030F0DBD020F06B
:100ED00031F49F3F11F41EF4CBC00EF4E095E7FB14
:100EE000C1C0E92FE7D080F3BA1762077307840700
:100EF000950718F071F49EF5FFC00EF4E0950B2EE7
:100F0000BA2FA02D0B01B90190010C01CA01A0015B
:100F10001124FF27591B99F0593F50F4503E68F1B6
:100F20001A16F040A22F232F342F4427585FF3CFF7
:100F3000469537952795A795F0405395C9F77EF4C8
:100F40001F16BA0B620B730B840BBAF09150A1F011
:100F5000FF0FBB1F661F771F881FC2F70EC0BA0F97
:100F6000621F731F841F48F4879577956795B7951F
:100F7000F7959E3F08F0B3CF9395880F08F0992717
:100F8000EE0F97958795089504D06894B111B5C078
:100F9000089598D088F09F5790F0B92F9927B751AE
:100FA000A0F0D1F0660F771F881F991F1AF0BA952D
:100FB000C9F712C0B13081F09FD0B1E008959CC054
:100FC000672F782F8827B85F39F0B93FCCF3869523
:100FD00077956795B395D9F73EF490958095709580
:100FE00061957F4F8F4F9F4F0895E89409C097FBFD
:100FF0003EF490958095709561957F4F8F4F9F4FF0
:101000009923A9F0F92F96E9BB279395F695879533
:1010100077956795B795F111F8CFFAF4BB0F11F4F6
:1010200060FF1BC06F5F7F4F8F4F9F4F16C088239D
:1010300011F096E911C0772321F09EE8872F762FD3
:1010400005C0662371F096E8862F70E060E02AF014
:101050009A95660F771F881FDAF7880F9695879500
:1010600097F9089597F99F6780E870E060E0089528
:101070009FEF80EC089500240A94161617061806B0
:101080000906089500240A9412161306140605068C
:101090000895092E0394000C11F4882352F0BB0F1D
:1010A00040F4BF2B11F460FF04C06F5F7F4F8F4F80
:1010B0009F4F089557FD9058440F551F59F05F3FBB
:1010C00071F04795880F97FB991F61F09F3F79F06A
:1010D00087950895121613061406551FF2CF4695EC
:1010E000F1DF08C0161617061806991FF1CF86956E
:1010F0007105610508940895E894BB276627772752
:10110000CB0197F908950BD0C4CFB5DF28F0BADF33
:1011100018F0952309F0A6CFABCF1124EECFCADF8C
:10112000A0F3959FD1F3950F50E0551F629FF001FA
:10113000729FBB27F00DB11D639FAA27F00DB11D53
:10114000AA1F649F6627B00DA11D661F829F2227DC
:10115000B00DA11D621F739FB00DA11D621F839F63
:10116000A00D611D221F749F3327A00D611D231F39
:10117000849F600D211D822F762F6A2F11249F5787
:1011800050408AF0E1F088234AF0EE0FFF1FBB1FAA
:10119000661F771F881F91505040A9F79E3F510549
:1011A00070F060CFAACF5F3FECF3983EDCF38695FA
:1011B00077956795B795F795E7959F5FC1F7FE2BF4
:1011C000880F911D9695879597F90895AEE0B0E048
:1011D000EBEEF8E03FCE0D891E8986E08C831A8302
:1011E00009838FEF9FE79E838D83AE01475E5F4F3C
:1011F0006F89788DCE0101961FD02F813885020F1F
:10120000131FF80110822E96E4E040CEAEE0B0E06D
:10121000EBE0F9E021CE85E08C838B899C899A8371
:101220008983AE01495E5F4F6D897E89CE0101964B
:101230004AD32E96E2E02CCEABE0B0E0E1E2F9E05A
:10124000FBCD7C013B018A01FC0117821682838160
:1012500081FFBAC1CE0101965C01F7019381F301D0
:1012600093FD859193FF81913F01882309F449C142
:10127000853239F493FD859193FF81913F01853249
:1012800021F4B70190E079D4E8CF912C212C312CB6
:10129000FFE1F31538F08B3211F190F4803209F14F
:1012A000833229F137FC3CC020ED280F2A3050F55D
:1012B00036FE20C08AE0989E200D1124922E06C092
:1012C0008D3291F0803371F7689430F8F30193FD1B
:1012D000859193FF81913F018111DACF21C06894FC
:1012E00031F8689432F8F2CF689433F8EFCF68940D
:1012F00034F8ECCFEAE02E9E200D1124222E6894C3
:1013000035F8E4CF8E3229F436FCFBC0689436F809
:10131000DDCF8C3619F4689437F8D8CF8836B1F21F
:10132000982F9F7D95549330D8F0833691F1833771
:10133000B1F1833509F05EC02801F2E04F0E511C77
:10134000F801C080D180692D70E036FC02C06FEFDB
:101350007FEFC601C0D34C01689437F882010AC000
:101360000C5F1F4FFFE3F98388248394912C650160
:10137000E89437F833FE2AC0522C8114910459F5B1
:10138000552009F46ACFB70180E290E0F6D35A9471
:10139000F7CFF801808189830E5F1F4FE5CF2801C9
:1013A000F2E04F0E511CF801C080D180692D70E031
:1013B00036FC02C06FEF7FEFC60198D34C0182016B
:1013C000D7CFB70180E290E0D8D32A94281419042B
:1013D00009F0B8F7D1CFF60137FC859137FE81913E
:1013E0006F01B70190E0C9D351105A94F1E08F1A00
:1013F0009108C3CF843619F0893609F073C0F8011B
:1014000037FE67C060817181828193810C5F1F4FBD
:10141000F32DFF763F2E97FF09C09095809570952C
:1014200061957F4F8F4F9F4F689437F82AE030E0E7
:10143000A501EBD3C82ECA188C2C432C36FE0CC049
:10144000E89440F8C91440F434FE05C032FC03C0EF
:10145000F32DFE7E4F2E892C44FE90C0FE01EC0D34
:10146000F11D8081803309F082C0242D297E422E17
:10147000842D8870582E43FC8FC040FE89C09C2C60
:10148000821418F42C0C922C981844FE8BC0B701CF
:1014900080E390E072D342FE08C088E790E041FE0E
:1014A00002C088E590E0B70168D3C91408F486C08B
:1014B000CA94D12C9FEFC91AD90ACA0CDB1CF601B9
:1014C00082916F01B70190E058D3AC14BD04B9F715
:1014D00057CF60817181072E000C880B990B0E5F2E
:1014E0001F4F96CFD32CE894D4F82AE030E085370C
:1014F00031F1232D297FD22E8F36F9F040F4883533
:10150000A1F0F701868197812B96E2E1B1CC80377B
:1015100049F08837B1F7D4FE02C06894D2F820E1D0
:1015200030E00DC06894D4F8F6CF34FE03C0822FAB
:101530008660D82E20E132E002C028E030E0F801D9
:10154000D7FE0EC060817181828193810C5F1F4F35
:10155000A5015BD3C82ECA183D2CE89437F86CCF90
:101560006081718190E080E00E5F1F4FF1CF42FCFF
:1015700002C083947DCF839483947ACF842D867820
:1015800009F476CFF6CFB70180E290E0F6D28394EB
:101590008214C8F3512C79CF522C5818821408F4B5
:1015A00074CFF8CF842D867809F47FCF8BE241FE8B
:1015B00080E247FC8DE2B70190E076CFB70180E38F
:1015C00090E0DBD29A9471CF8FEF9FEF9DCF20FDFB
:1015D00009C0FC0123FD05C022FF02C073836283A2
:1015E00051834083089544FD17C046FD1DC0DB01B3
:1015F000FC01AA0FBB1FEE1FFF1F1094D1F76A0F4B
:101600007B1F8E1F9F1F660F771F881F991F620FFA
:10161000711D811D911D089533E0660F771F881F8E
:10162000991F3150D1F7F3CF34E0F7CF0F931F93C9
:10163000CF93DF938C01C80164D2EC0197FD06C003
:1016400037D2892BC1F7B801CE01C7D2CE01DF91C5
:10165000CF911F910F9108958F929F92AF92BF9259
:10166000EF92FF920F931F93CF93DF938C01D62FAE
:101670007A01B22E46D29C0133272B32310529F054
:101680002D323105A1F46894B7F8D15061F480E0AF
:10169000DF91CF911F910F91FF90EF90BF90AF908E
:1016A0009F908F900895C8012CD297FDF0CFCB2D3D
:1016B000CD7F2B2D2073E9F48033D9F4AA24AA948A
:1016C000AD0E79F0C8011DD297FD0BC0282F2F7DDC
:1016D000283559F4C264D25021F0C80112D297FFC4
:1016E00008C0812C912C54011AC0B6FE29C0C260DA
:1016F000DA2D812C912C540120ED280F283018F17F
:10170000C4FD09C02A30F8F0C6FF05C02F7D3FEEAA
:10171000320F3630B8F0B80160D2C1FFB8CFC7FF82
:1017200008C0B094A09490948094811C911CA11C3A
:10173000B11C2C2FB501A401C70149DF81E0A8CF5E
:10174000C261D6CF27504C2FC501B4014CDF4B01ED
:101750005C01C260D15019F3C801D3D197FFCCCF3F
:10176000DCCFA0E2B0E0E6EBFBE06BCB5C01962EB9
:101770007A01CE0101966C0180E2F60111928A9500
:10178000E9F7F501B381890130E020E0712C812C6B
:10179000A0E041E050E0F801B3FD8591B3FF8191F5
:1017A000982F8F01811106C010E000E0C801A096BB
:1017B000EDE063CB8E3519F42115310541F1A21707
:1017C00013064CF48D3549F18D3229F4811006C091
:1017D000882483941DC0882009F462C0E92FE6950F
:1017E000E695E695EC0DFD2DF11D892F8770BA0168
:1017F00001C0660F8A95EAF78081682B60837916AD
:1018000051F0971510F49F5FE9CF9150E7CFA1E019
:101810002F5F3F4FC0CF812CFBCF882019F08E81E6
:1018200080628E83AA2359F0F6019E012F5D3F4FFF
:101830008081809580833196E217F307C9F7882469
:101840008394C5015ED197FD15C0E82FE695E69516
:10185000E695EC0DFD2DF11D208130E0AC014770C7
:10186000552702C0359527954A95E2F720FD05C01A
:10187000B501B3D1882069F097CFE114F10429F0C4
:10188000F7018083C70101967C019A94812C911005
:10189000D8CFE114F10409F489CFF701108286CF83
:1018A000E82FE695E695E695EC0DFD2DF11D982FB8
:1018B0009770BA0101C0660F9A95EAF79081692B7B
:1018C0006083782EA5CFB0E0A0E0E8E6FCE0B7CAE0
:1018D0006C01EB015A01FC0117821682512CF601B2
:1018E000E380FE01E3FC8591E3FE8191182FEF0177
:1018F0008823C9F090E0DCD0892B19F0C60196DE70
:10190000EECF153241F4FE01E3FC1591E3FE119197
:10191000EF01153259F4C601F4D097FD88C01817AD
:10192000F1F2B6015AD1852D90E085C000E01A325F
:1019300031F4E3FC1591E3FE1191EF0101E0F12C8C
:1019400020ED210F2A3038F101FF34C0FF2059F378
:10195000183699F11C3609F43AC0112321F3612F8E
:1019600070E08CEA90E0ACD0892BE9F2912C812CCC
:1019700000FD06C0F50180809180C50102965C01E2
:101980001E3669F5F6014681578170E060E0202F30
:10199000C4011DDEA4CF02606F2D70E090E080E0F6
:1019A00040E221DEF62EFE01E3FC1591E3FE1191EB
:1019B000EF01C6CFFF24FA94CBCFFE01E3FC1591D3
:1019C000E3FE1191EF01183609F0C7CF08600460FB
:1019D000FE01E3FC1591E3FE1191EF01BECF13363A
:1019E000B9F401FD02C0FF24F394C6018AD097FD2B
:1019F0001EC08114910429F0F4018083C401019672
:101A00004C01FA94F110F1CF00FD69CF539467CFE8
:101A10001B35A9F49E01A4016F2DC601A2DEEC01C5
:101A2000892B91F7F6018381807309F47CCF8FEFC6
:101A30009FEF511078CFCDB7DEB7EFE01CCAC601DB
:101A4000F5DD97FDF4CF1F3689F130F4143641F0FF
:101A5000193639F0006405C01337B1F01537D1F7E6
:101A60000062202FA4016F2DC601F6DD8111CCCFBD
:101A7000D9CF8114910429F0F4016082C401019648
:101A80004C01FA94FF2059F0C6013BD03C0197FD70
:101A900006C00ED0892B69F3B601C3019ED0811414
:101AA000910409F4B1CFF4011082AECF0061D9CF17
:101AB000911109C1803219F089508550D0F70895ED
:101AC000FC010590061621F00020D9F7C001089509
:101AD0003197CF010895FC010590615070400110CD
:101AE000D8F7809590958E0F9F1F0895FC01615047
:101AF000704001900110D8F7809590958E0F9F1F30
:101B00000895CF93DF93EC012B8120FF1AC026FFAD
:101B10000CC02F7B2B838E819F8101969F838E83A8
:101B20008A8190E0DF91CF91089522FF18C0E8816B
:101B3000F9818081082E000C990B009729F420620E
:101B40002B838FEF9FEFEECF3196F983E8832E81C1
:101B50003F812F5F3F4F3F832E839927E3CFEA8555
:101B6000FB85099597FFF3CF2B81019621F080E249
:101B7000822B8B83E6CF80E1FBCF0F931F93CF9314
:101B8000DF93182F092FEB018B8181FD09C01FEF17
:101B90000FEF812F902FDF91CF911F910F9108951B
:101BA00082FF14C02E813F818C819D8128173907C7
:101BB0003CF4E881F981CF010196998388831083F1
:101BC0008E819F8101969F838E83E3CFE885F9857F
:101BD000812F0995892BA1F3DACFFB01238120FF07
:101BE00011C026FD0FC08F3F980771F082832F7DB3
:101BF000206423832681378121503109378326834E
:101C0000992708958FEF9FEF0895FA01AA272830AA
:101C100051F1203181F1E8946F936E7F6E5F7F4FB9
:101C20008F4F9F4FAF4FB1E03ED0B4E03CD0670F35
:101C3000781F891F9A1FA11D680F791F8A1F911D88
:101C4000A11D6A0F711D811D911DA11D20D009F4D8
:101C500068943F912AE0269F11243019305D31931A
:101C6000DEF6CF010895462F4770405D4193B3E003
:101C70000FD0C9F7F6CF462F4F70405D4A3318F0AA
:101C8000495D31FD4052419302D0A9F7EACFB4E05B
:101C9000A6959795879577956795BA95C9F7009713
:101CA0006105710508959B01AC010A2E06945795B4
:101CB000479537952795BA95C9F7620F731F841F0B
:101CC000951FA01D0895992788270895F894FFCFA0
:101CD0009411E3C2813A9A990141490249004902AB
:101CE00049002A002B000229002A002B00032900AA
:101CF0002A002B000129002A002B000029002A00BD
:101D00002B00042900270028000626002A002B00AB
:101D100007290027002800072900240025000023A8
:101D200000270028000726002A002B00052900486C
:101D300045524520574520474F210D0A0025642074
:101D4000736F6E69632064697374616E6365200DDF
:101D50000A002563202564005374617274696E67FC
:101D600020736F6E6963206465627567206D6F64B0
:101D7000652C207072657373207120746F207374EA
:101D80006F702E0D0A0053746F7070696E67207348
:101D90006F6E6963206465627567206D6F64652C82
:101DA000207072657373207120746F207374617278
:101DB000742E0D0A006B50202A2031303A20256401
:101DC000206B49202A2031303030303A20256420E1
:0A1DD0006B443A2025640D0A000060
:00000001FF
